:020000040800F2
:1000000000500020F1100008F10E0008F70E000863
:10001000FD0E0008030F0008090F00080000000093
:100020000000000000000000000000000F0F0008AA
:100030001B0F000800000000270F0008330F000806
:100040003911000839110008391100083911000868
:100050003911000839110008391100083911000858
:100060003911000839110008391100083911000848
:100070003911000839110008391100083911000838
:100080003911000839110008391100083911000828
:100090003911000839110008391100083911000818
:1000A0003911000839110008391100083911000808
:1000B000410F0008391100083911000839110008F2
:1000C00039110008391100083911000839110008E8
:1000D00039110008550F0008690F00087D0F00084E
:1000E000391100083911000839110008000000001A
:1000F0000000000000000000000000000000000000
:0C01000000000000000000005FF808F1A3
:10010C0010B5054C237833B9044B13B10448AFF345
:10011C0000800123237010BDA0000020000000000F
:10012C00403D000808B5034B1BB103490348AFF32E
:10013C00008008BD00000000A4000020403D000825
:10014C0080B400AF024B1846BD4680BC704700BF60
:10015C000000002080B500AF054B00221A704FF450
:10016C007A7306220349044802F03DFC00BF80BDAF
:10017C00C5000020583D00088001002080B584B0E7
:10018C0000AF0346FB712F4B1B68002B0ED1FB7984
:10019C00212B51D12C4B00221A702A4B1B682B4956
:1001AC00FA79CA54274B01221A6045E0FB79232BBC
:1001BC0029D1244B1B682549FA79CA54214B1B6859
:1001CC000133224A0021D1540023FB600BE01F4A6B
:1001DC00FB68134419781E4AFB6813440A461A70CC
:1001EC00FB680133FB60174B1B680133FA689A42BA
:1001FC00EDDD144B00221A60134B01221A70154BC3
:10020C0001221A7018E00F4B1B680A2B0AD10D4BF8
:10021C0000221A604FF47A7308220F490F4802F03B
:10022C00E2FB09E0074B1B680849FA79CA54054BF5
:10023C001B680133034A1360002318461037BD4670
:10024C0080BD00BF08000020C4000020BC000020BE
:10025C0000000020C5000020603D00088001002047
:10026C0080B483B000AF0346FB71FB79332B0AD00B
:10027C00332B0ADC312B02D0322B02D005E00223C7
:10028C0004E0002302E0012300E0032318460C37AE
:10029C00BD4680BC7047000080B500AF6E4B1B782C
:1002AC00022B00F0A980022B00F3D480002B02D08B
:1002BC00012B36D0CEE0002000F0D4FE0346002BFC
:1002CC000CD0664B1B68664A12881146184601F022
:1002DC000FFB4FF47A71002000F0A6FE00F0D6F868
:1002EC000346002B00F0B3805C4B1B685C4A118802
:1002FC000122184601F0E4FA00F0D2F8564B012224
:10030C001A7000F0D9F80346564A1360554B1B6817
:10031C001B781846FFF7A4FF03461A46524B1A7077
:10032C0095E0524B1B68002B47D14F4B1B78032B8E
:10033C0044D801A252F823F07B0300089303000871
:10034C0055030008B3030008464B1B6802331B78A7
:10035C00184600F03DFB00F027FB0346444A1360AF
:10036C00444B03221A70444B01221A7026E0FFF70B
:10037C00E7FE03463E4A13603E4B0B221A703E4B7F
:10038C0001221A701AE03A4B1B683C4A12683C492D
:10039C00184603F041F90346DAB2364B1A70364B65
:1003AC0001221A700AE0324B364A1A60314B0A228B
:1003BC001A70314B01221A7000E000BF2A4B1B78D7
:1003CC00032B03D1244B00221A7002E0224B022291
:1003DC001A70274B1968274B1B789AB240F6B83322
:1003EC00294802F000FB214B00221A6040F6B8317C
:1003FC00012000F019FE2DE000F048F80346002B18
:10040C0018D000F059F80346164A1360154B1B68B8
:10041C001B784F2B0ED1134B1B6801331B784B2BC6
:10042C0008D10D4B00221A700021012000F0FCFDB8
:10043C0000F036F8012000F015FE0346002B08D022
:10044C00054B01221A70094B01221A6001E000BF12
:10045C0000E000BF00BF80BDC60000201C000020D3
:10046C0020000020C80000200C000020DC00002030
:10047C00CC000020D0000020D8000020D4000020A8
:10048C00683D0008100000203C01002080B400AF43
:10049C00024B1B781846BD4680BC7047F10000200B
:1004AC0080B400AF034B00221A7000BFBD4680BC65
:1004BC00704700BFF100002080B400AF034B002256
:1004CC001A60034B1846BD4680BC7047EC000020F8
:1004DC00E000002080B582B000AF0346FB711F4BDB
:1004EC001B78002B06D1FB79212B31D11B4B012220
:1004FC001A702DE0FB79232B0ED1194B01221A70A7
:10050C00164B00221A70174B1B68174A0021D15446
:10051C00144B00221A601BE0124B1B68092B0DD1E7
:10052C000E4B00221A700F4B00221A604FF4FA6324
:10053C000A220E490E4802F056FA09E0094B1B68D4
:10054C000949FA79CA54074B1B680133054A1360F1
:10055C00002318460837BD4680BD00BFF0000020C0
:10056C00F1000020EC000020E00000201000002032
:10057C003C01002080B500AF00F0DAFD00F03CF843
:10058C0000F04AF900F07EF800F0C8F800F01AF913
:10059C0000F0EEF8114801F02FFE4FF4FA7000F065
:1005AC0029FE00F055FA00F029FD012201210C482A
:1005BC0000F05EFA4FF4FA7264210A4800F058FA1F
:1005CC0001220949094802F0A0FA01220849094808
:1005DC0002F09BFA00F0FEFAFCE700BFF4000020EA
:1005EC00A502000861010008080200203C0100205F
:1005FC00090200208001002080B590B000AF07F107
:10060C00180328220021184602F012FF3B1D00227D
:10061C001A605A609A60DA601A610123BB614FF468
:10062C008033FB6100233B620123BB6202237B63AB
:10063C004FF48033BB634FF4E013FB6307F11803F3
:10064C00184601F06FF90346002B01D000F0A6F913
:10065C000F237B600223BB600023FB604FF480639D
:10066C003B6100237B613B1D0221184601F0DCFB42
:10067C000346002B01D000F091F900BF4037BD4676
:10068C0080BD000080B586B000AF07F108030022E2
:10069C001A605A609A60DA603B4600221A605A600F
:1006AC001D4B4FF080421A601B4B47225A601A4B6D
:1006BC0000229A60184B42F20F72DA60164B00223D
:1006CC001A61154B80229A61134801F045FD0346CF
:1006DC00002B01D000F062F94FF48053BB6007F19E
:1006EC00080319460C4801F0E1FE0346002B01D02B
:1006FC0000F054F900233B6000237B603B46194615
:10070C00054802F0B3F80346002B01D000F046F97F
:10071C0000BF1837BD4680BDF400002080B500AF87
:10072C00114B124A1A60104B4FF4E1325A600E4BC7
:10073C0000229A600C4B0022DA600B4B00221A61EB
:10074C00094B0C225A61084B00229A61064B00227D
:10075C00DA61054802F0FAF80346002B01D000F0EC
:10076C001DF900BF80BD00BF3C01002000380140D6
:10077C0080B500AF114B124A1A60104B4FF4165251
:10078C005A600E4B00229A600C4B0022DA600B4B25
:10079C0000221A61094B0C225A61084B00229A6103
:1007AC00064B0022DA61054802F0D0F80346002B14
:1007BC0001D000F0F3F800BF80BD00BF8001002025
:1007CC000044004080B500AF114B124A1A60104B28
:1007DC004FF416525A600E4B00229A600C4B0022BA
:1007EC00DA600B4B00221A61094B0C225A61084B40
:1007FC0000229A61064B0022DA61054802F0A6F845
:10080C000346002B01D000F0C9F800BF80BD00BF2B
:10081C00C40100200048004080B588B000AF07F14B
:10082C00100300221A605A609A60DA60354B9B699B
:10083C00344A43F010039361324B9B6903F010036D
:10084C00FB60FB682F4B9B692E4A43F0200393619E
:10085C002C4B9B6903F02003BB60BB68294B9B6945
:10086C00284A43F004039361264B9B6903F004036D
:10087C007B607B68234B9B69224A43F0080393619E
:10088C00204B9B6903F008033B603B6800224FF44C
:10089C0000711D4801F014F800224FF400711B4840
:1008AC0001F00EF84FF400533B6100237B610023F1
:1008BC00BB6107F110031946134800F07DFE4FF49D
:1008CC0000733B6101237B610023BB610223FB614D
:1008DC0007F1100319460C4800F06EFE4FF400733C
:1008EC003B6101237B610023BB610223FB6107F1A8
:1008FC0010031946054800F05FFE00BF2037BD46C7
:10090C0080BD00BF0010024000100140000C0140EF
:10091C0080B582B000AF78607B681B68B3F1804F04
:10092C0003D100F007F900F0ADFB00BF0837BD465E
:10093C0080BD000080B582B000AF78607B681B681A
:10094C00104A93420AD1104B1B781846FFF7C2FD90
:10095C0001220D490D4802F0D8F80EE07B681B68A7
:10096C000B4A934209D10B4B1B781846FFF706FC38
:10097C0001220849084802F0C8F800BF0837BD46F4
:10098C0080BD00BF00380140080200203C0100205F
:10099C0000440040090200208001002080B400AF18
:1009AC0072B600BFFEE7000080B400AF054B1B78A9
:1009BC00002B01D1044B00E0044B1846BD4680BC13
:1009CC00704700BF0A0200202800002024000020ED
:1009DC0080B582B000AF0346FB71FB79302B03D19D
:1009EC00094B00221A7002E0074B01221A70064BC9
:1009FC001B781A464FF40071044800F061FF00BFE9
:100A0C000837BD4680BD00BF0A020020000C014023
:100A1C0080B586B000AFF860B9607A603B60142096
:100A2C0002F0F6FC03467B617B69FA681A607B690D
:100A3C007A685A607B69BA689A607B693A681A610D
:100A4C007B6900221A737B6918461837BD4680BD36
:100A5C0080B400AF044B00229A62044B00229A62CD
:100A6C0000BFBD4680BC70470C020020380200203D
:100A7C0080B586B000AFF860B9607A602C4B9B6A89
:100A8C000A2B01D100234FE0FB68BA68796801207A
:100A9C00FFF7BEFF3861264B9B6A013B7B6115E07B
:100AAC003B695A6822497B6951F823305B68D21A3A
:100ABC003B695A607B6901331D497A6951F82220E0
:100ACC001B4941F823207B69013B7B617B69002B2F
:100ADC0009DB3B695A6816497B6951F823305B681E
:100AEC00D31A002BDCDA7B6901337B617B69002B29
:100AFC000EDD7B69013B0E4A52F8233059683B6985
:100B0C005A687B69013B0A4850F823308A1A5A60AC
:100B1C0007497B693A6941F82320054B9B6A0133ED
:100B2C00034A93623B691B6818461837BD4680BD63
:100B3C000C02002080B400AF244B9B6A002B40D0E9
:100B4C00224B9B6A013B214A52F823305B68002BF5
:100B5C002ED11E4B9B6A013B1C4A93621B4B9B6A1A
:100B6C001A4A52F823301A7B184B9B6A174951F8D2
:100B7C0023300132D2B21A73144B9B6A134A52F8C7
:100B8C002320124B9B6A114951F8233092685A600A
:100B9C000E4B9A6A0E4B9B6A0C4951F822200C4959
:100BAC0041F823200A4B9B6A0133094A936208E0FF
:100BBC00064B9B6A013B054A52F823305A68013AAE
:100BCC005A6000BFBD4680BC704700BF0C020020BD
:100BDC003802002080B500AF4DE02A4B9B6A013BE8
:100BEC00284A52F823301B699847264B9B6A013BD5
:100BFC00244A52F823301A7B224B9B6A013B214931
:100C0C0051F82330013AD2B21A731E4B9B6A013B46
:100C1C001C4A52F823309B68002B17D0194B9B6A47
:100C2C00013B184A52F823301869164B9B6A013B5A
:100C3C00144A52F823305968124B9B6A013B114AF3
:100C4C0052F823309B681A46FFF712FF0D4B9B6A34
:100C5C00013B0C4A52F82330184602F0E1FB094BD9
:100C6C009B6A013B074A002142F82310054B9B6A03
:100C7C00013B044A9362034B9B6A002BADD100BF2E
:100C8C0000BF80BD3802002080B485B000AF154B8A
:100C9C009B69144A43F001039361124B9B6903F067
:100CAC000103BB60BB680F4BDB690E4A43F08053FA
:100CBC00D3610C4BDB6903F080537B607B680A4B80
:100CCC005B68FB60FB6823F0E063FB60FB6843F050
:100CDC000073FB60044AFB68536000BF1437BD46C9
:100CEC0080BC7047001002400000014080B584B009
:100CFC0000AF78607B681B68B3F1804F13D10C4B4D
:100D0C00DB690B4A43F00103D361094BDB6903F048
:100D1C000103FB60FB68002200211C2000F065FB36
:100D2C001C2000F07EFB00BF1037BD4680BD00BF0D
:100D3C000010024080B58CB000AF786007F1200342
:100D4C0000221A605A609A60DA607B681B685F4AFE
:100D5C0093423AD15E4B9B695D4A43F48043936165
:100D6C005B4B9B6903F48043FB61FB69584B9B69AC
:100D7C00574A43F004039361554B9B6903F00403FA
:100D8C00BB61BB694FF400733B6202237B6203239C
:100D9C00FB6207F1200319464E4800F00DFC4FF49E
:100DAC0080633B6200237B620023BB6207F120035C
:100DBC001946484800F000FC00220021252000F0D4
:100DCC0014FB252000F02DFB7CE07B681B68424A5D
:100DDC00934238D13E4BDB693D4A43F40033D36137
:100DEC003B4BDB6903F400337B617B69384B9B69BC
:100DFC00374A43F004039361354B9B6903F00403BA
:100E0C003B613B6904233B6202237B620323FB624D
:100E1C0007F1200319462F4800F0CEFB08233B6254
:100E2C0000237B620023BB6207F12003194629488B
:100E3C0000F0C2FB00220021262000F0D6FA26206A
:100E4C0000F0EFFA3EE07B681B68244A934239D1EC
:100E5C001F4BDB691E4A43F48023D3611C4BDB69B7
:100E6C0003F48023FB60FB68194B9B69184A43F021
:100E7C0008039361164B9B6903F00803BB60BB68C6
:100E8C004FF480633B6202237B620323FB6207F116
:100E9C0020031946124800F08FFB4FF400633B62AD
:100EAC0000237B620023BB6207F1200319460C4828
:100EBC0000F082FB00220021272000F096FA272068
:100ECC0000F0AFFA00BF3037BD4680BD003801409E
:100EDC00001002400008014000440040004800405F
:100EEC00000C014080B400AFFEE780B400AFFEE719
:100EFC0080B400AFFEE780B400AFFEE780B400AF73
:100F0C00FEE780B400AF00BFBD4680BC704780B424
:100F1C0000AF00BFBD4680BC704780B400AF00BFBF
:100F2C00BD4680BC704780B500AF00F047F900BFEC
:100F3C0080BD000080B500AF024801F0AFF900BFE2
:100F4C0080BD00BFF400002080B500AF024801F066
:100F5C000DFE00BF80BD00BF3C01002080B500AF7E
:100F6C00024801F003FE00BF80BD00BF80010020DD
:100F7C0080B500AF024801F0F9FD00BF80BD00BF95
:100F8C00C401002080B586B000AF7860144A154BC0
:100F9C00D31A7B617B693B61134B1B68002B02D11D
:100FAC00114B124A1A60104B1A687B6813443A6949
:100FBC009A4207D202F002FA03460C221A604FF052
:100FCC00FF3309E0084B1B68FB60074B1A687B6812
:100FDC001344054A1360FB6818461837BD4680BD9C
:100FEC000050002000040000640200209802002041
:100FFC0080B400AF00BFBD4680BC704780B582B0E6
:10100C0000AF00237B6006E00A21786800F00CF842
:10101C007B6801337B607B68022BF5DD00BF00BF72
:10102C000837BD4680BD000080B483B000AF786047
:10103C003960094B1B683A6892FBF3F207497B68ED
:10104C0041F82320064A7B68002142F8231000BF98
:10105C000C37BD4680BC7047300000206802002071
:10106C007402002080B483B000AF7860044A7B68BF
:10107C0052F8233018460C37BD4680BC704700BF71
:10108C007402002080B483B000AF00237B601CE0AE
:10109C00124A7B6852F82330002B13DD0F4A7B6811
:1010AC0052F823305A1E0D497B6841F823200B4A15
:1010BC007B6852F82330002B04D1094A7B6801214C
:1010CC0042F823107B6801337B607B68022BDFDDE9
:1010DC0000BF00BF0C37BD4680BC704768020020C3
:1010EC00740200200C480D490D4A002302E0D4582C
:1010FC00C4500433C4188C42F9D30A4A0A4C002356
:10110C0001E013600432A242FBD3FFF771FF02F03F
:10111C005BF9FFF72FFA704700000020A0000020B9
:10112C00D43D0008A000002094020020FEE700003F
:10113C0080B500AF084B1B68074A43F010031360DF
:10114C00032000F047F90F2000F008F8FFF79CFD92
:10115C000023184680BD00BF0020024080B582B03D
:10116C0000AF7860124B1A68124B1B7819464FF47B
:10117C007A73B3FBF1F3B2FBF3F3184600F05FF9AB
:10118C000346002B01D001230EE07B680F2B0AD8FD
:10119C00002279684FF0FF3000F027F9064A7B688F
:1011AC001360002300E0012318460837BD4680BDBC
:1011BC002C000020380000203400002080B400AF48
:1011CC00054B1B781A46054B1B681344034A1360E6
:1011DC0000BFBD4680BC7047380000208002002054
:1011EC0080B400AF024B1B681846BD4680BC7047EC
:1011FC008002002080B584B000AF7860FFF7F0FF6C
:10120C00B8607B68FB60FB68B3F1FF3F05D00A4B0D
:10121C001B781A46FB681344FB6000BFFFF7E0FF26
:10122C000246BB68D31AFA689A42F7D800BF00BFCF
:10123C001037BD4680BD00BF3800002080B485B09B
:10124C0000AF78607B6803F00703FB600C4BDB6836
:10125C00BB60BA684FF6FF031340BB60FB681A0211
:10126C00BB68134343F0BF6343F40033BB60044AD1
:10127C00BB68D36000BF1437BD4680BC704700BF4D
:10128C0000ED00E080B400AF044BDB681B0A03F0F8
:10129C0007031846BD4680BC704700BF00ED00E058
:1012AC0080B483B000AF0346FB7197F90730002B75
:1012BC000BDBFB7903F01F02064997F907305B093A
:1012CC00012000FA02F241F8232000BF0C37BD4682
:1012DC0080BC704700E100E080B483B000AF0346EF
:1012EC003960FB7197F90730002B0ADB3B68DAB2E7
:1012FC000C4997F907301201D2B20B4483F8002342
:10130C000AE03B68DAB20849FB7903F00F03043BAF
:10131C001201D2B20B441A7600BF0C37BD4680BC0A
:10132C00704700BF00E100E000ED00E080B489B040
:10133C0000AFF860B9607A60FB6803F00703FB61EB
:10134C00FB69C3F10703042B28BF0423BB61FB69B2
:10135C000433062B02D9FB69033B00E000237B61BD
:10136C004FF0FF32BB6902FA03F3DA43BB681A4051
:10137C007B699A404FF0FF317B6901FA03F3D94343
:10138C007B680B40134318462437BD4680BC70471E
:10139C0080B582B000AF78607B68013BB3F1807F91
:1013AC0001D301230FE00A4A7B68013B53600F21F4
:1013BC004FF0FF30FFF790FF054B00229A60044B73
:1013CC0007221A60002318460837BD4680BD00BFAF
:1013DC0010E000E080B582B000AF78607868FFF76D
:1013EC002DFF00BF0837BD4680BD80B586B000AF6D
:1013FC000346B9607A60FB7300237B61FFF742FF01
:10140C0078617A68B9687869FFF790FF024697F9B6
:10141C000F3011461846FFF75FFF00BF1837BD4667
:10142C0080BD80B582B000AF0346FB7197F90730E1
:10143C001846FFF735FF00BF0837BD4680BD80B5A5
:10144C0082B000AF78607868FFF7A2FF03461846B9
:10145C000837BD4680BD80B485B000AF78600023EE
:10146C00FB737B6893F82130022B08D07B68042235
:10147C009A637B68002283F82020012320E07B689C
:10148C001B681A687B681B6822F00E021A607B6866
:10149C001B681A687B681B6822F001021A607B6863
:1014AC001A6C7B68DB6B012101FA02F25A607B68D3
:1014BC00012283F821207B68002283F82020FB7B0B
:1014CC0018461437BD4680BC7047000080B584B008
:1014DC0000AF78600023FB737B6893F82130022BFC
:1014EC0005D07B6804229A630123FB7351E07B686F
:1014FC001B681A687B681B6822F00E021A607B68F6
:10150C001B681A687B681B6822F001021A607B68F2
:10151C001B68224A934229D07B681B68204A93425D
:10152C0022D07B681B681F4A93421AD07B681B68C9
:10153C001D4A934212D07B681B681C4A93420AD006
:10154C007B681B681A4A934202D14FF480130EE059
:10155C004FF080730BE04FF4803308E04FF480536E
:10156C0005E04FF4807302E0102300E00123114AE0
:10157C0053607B68012283F821207B68002283F86A
:10158C0020207B685B6B002B03D07B685B6B7868DF
:10159C009847FB7B18461037BD4680BD08000240BB
:1015AC001C0002403000024044000240580002403F
:1015BC006C0002400000024080B48BB000AF786039
:1015CC00396000237B6200233B6269E101227B6A64
:1015DC0002FA03F3FB613B681B68FA691340BB61B9
:1015EC00BA69FB699A4240F058813B685B689A4A39
:1015FC0093425ED0984A934275D8984A934258D0F9
:10160C00964A93426FD8964A934252D0944A934248
:10161C0069D8944A93424CD0924A934263D8924AE6
:10162C00934246D0904A93425DD8122B2AD8122B63
:10163C0059D801A252F823F0BF16000899160008D9
:10164C00AB160008ED160008F3160008F316000898
:10165C00F3160008F3160008F3160008F31600083A
:10166C00F3160008F3160008F3160008F31600082A
:10167C00F3160008F3160008F3160008A11600086C
:10168C00B5160008794A934213D02CE03B68DB680E
:10169C003B6229E03B68DB6804333B6224E03B6837
:1016AC00DB6808333B621FE03B68DB680C333B6252
:1016BC001AE03B689B68002B02D104233B6213E0C9
:1016CC003B689B68012B05D108233B627B68FA6958
:1016DC001A6109E008233B627B68FA695A6103E0EE
:1016EC0000233B6200E000BFBB69FF2B01D87B6885
:1016FC0001E07B6804337B61BB69FF2B02D87B6AFA
:10170C009B0002E07B6A083B9B003B617B691A688B
:10171C000F213B6901FA03F3DB431A40396A3B6939
:10172C0001FA03F31A437B691A603B685B6803F0A8
:10173C008053002B00F0B1804D4B9B694C4A43F019
:10174C00010393614A4B9B6903F00103BB60BB68C7
:10175C00484A7B6A9B08023352F82330FB607B6A51
:10176C0003F003039B000F2202FA03F3DB43FA6836
:10177C001340FB607B68404A934213D07B683F4A1E
:10178C0093420DD07B683E4A934207D07B683D4A1A
:10179C00934201D1032306E0042304E0022302E078
:1017AC00012300E000237A6A02F0030292009340C6
:1017BC00FA681343FB602F497B6A9B080233FA6873
:1017CC0041F823203B685B6803F48033002B06D080
:1017DC002D4B1A682C49BB6913430B6006E02A4B4E
:1017EC001A68BB69DB43284913400B603B685B6894
:1017FC0003F40033002B06D0234B5A682249BB69F3
:10180C0013434B6006E0204B5A68BB69DB431E490F
:10181C0013404B603B685B6803F48013002B06D0CD
:10182C00194B9A681849BB6913438B6006E0164B39
:10183C009A68BB69DB43144913408B603B685B6857
:10184C0003F40013002B21D00F4BDA680E49BB694F
:10185C001343CB6021E000BF0000321000003110B8
:10186C0000002210000021100000121000001110C6
:10187C00001002400000014000080140000C014033
:10188C000010014000140140000401400B4BDA68C9
:10189C00BB69DB4309491340CB607B6A01337B6234
:1018AC003B681A687B6A22FA03F3002B7FF48EAE36
:1018BC0000BF00BF2C37BD4680BC70470004014000
:1018CC0080B483B000AF78600B467B8013467B708E
:1018DC007B78002B03D07A887B681A6103E07B88C5
:1018EC001A047B681A6100BF0C37BD4680BC704778
:1018FC0080B485B000AF78600B467B807B68DB687A
:10190C00FB607A88FB6813401A04FB68D9437B8818
:10191C000B401A437B681A6100BF1437BD4680BC6C
:10192C007047000080B586B000AF78607B68002BF4
:10193C0001D1012372E27B681B6803F00103002BC9
:10194C0000F08780924B5B6803F00C03042B0CD0E7
:10195C008F4B5B6803F00C03082B12D18C4B5B682C
:10196C0003F48033B3F5803F0BD1894B1B6803F430
:10197C000033002B6CD07B685B68002B68D1012393
:10198C004CE27B685B68B3F5803F06D1804B1B68EB
:10199C007F4A43F4803313602EE07B685B68002B36
:1019AC000CD17B4B1B687A4A23F480331360784B41
:1019BC001B68774A23F4802313601DE07B685B6807
:1019CC00B3F5A02F0CD1724B1B68714A43F48023E2
:1019DC0013606F4B1B686E4A43F4803313600BE04B
:1019EC006B4B1B686A4A23F480331360684B1B688B
:1019FC00674A23F4802313607B685B68002B13D049
:101A0C00FFF7EEFB386108E0FFF7EAFB02463B69A3
:101A1C00D31A642B01D9032300E25D4B1B6803F43A
:101A2C000033002BF0D014E0FFF7DAFB386108E04C
:101A3C00FFF7D6FB02463B69D31A642B01D903236B
:101A4C00ECE1534B1B6803F40033002BF0D100E0A6
:101A5C0000BF7B681B6803F00203002B63D04C4B68
:101A6C005B6803F00C03002B0BD0494B5B6803F055
:101A7C000C03082B1CD1464B5B6803F48033002B02
:101A8C0016D1434B1B6803F00203002B05D07B6877
:101A9C001B69012B01D00123C0E13D4B1B6823F0D6
:101AAC00F8027B685B69DB00394913430B603AE051
:101ABC007B681B69002B20D0364B01221A60FFF784
:101ACC008FFB386108E0FFF78BFB02463B69D31AAA
:101ADC00022B01D90323A1E12D4B1B6803F0020358
:101AEC00002BF0D02A4B1B6823F0F8027B685B6953
:101AFC00DB00274913430B6015E0264B00221A60CC
:101B0C00FFF76EFB386108E0FFF76AFB02463B69A2
:101B1C00D31A022B01D9032380E11D4B1B6803F060
:101B2C000203002BF0D17B681B6803F00803002B29
:101B3C003AD07B689B69002B19D0174B01221A6095
:101B4C00FFF74EFB386108E0FFF74AFB02463B69A2
:101B5C00D31A022B01D9032360E10D4B5B6A03F00E
:101B6C000203002BF0D0012000F0D8FA1CE00A4B45
:101B7C0000221A60FFF734FB38610FE0FFF730FBEF
:101B8C0002463B69D31A022B08D9032346E100BF56
:101B9C00001002400000424280044242924B5B6AB9
:101BAC0003F00203002BE9D17B681B6803F00403EC
:101BBC00002B00F0A6800023FB758B4BDB6903F038
:101BCC008053002B0DD1884BDB69874A43F080533F
:101BDC00D361854BDB6903F08053BB60BB68012389
:101BEC00FB75824B1B6803F48073002B18D17F4B61
:101BFC001B687E4A43F480731360FFF7F1FA386177
:101C0C0008E0FFF7EDFA02463B69D31A642B01D9C1
:101C1C00032303E1754B1B6803F48073002BF0D096
:101C2C007B68DB68012B06D16F4B1B6A6E4A43F055
:101C3C00010313622DE07B68DB68002B0CD16A4B2F
:101C4C001B6A694A23F001031362674B1B6A664ADD
:101C5C0023F0040313621CE07B68DB68052B0CD1BA
:101C6C00614B1B6A604A43F0040313625E4B1B6AB0
:101C7C005D4A43F0010313620BE05B4B1B6A5A4A4B
:101C8C0023F001031362584B1B6A574A23F00403D9
:101C9C0013627B68DB68002B15D0FFF7A1FA386163
:101CAC000AE0FFF79DFA02463B69D31A41F28832EB
:101CBC00934201D90323B1E04B4B1B6A03F002039F
:101CCC00002BEED014E0FFF78BFA38610AE0FFF737
:101CDC0087FA02463B69D31A41F28832934201D902
:101CEC0003239BE0404B1B6A03F00203002BEED155
:101CFC00FB7D012B05D13C4BDB693B4A23F0805328
:101D0C00D3617B68DB69002B00F08780364B5B6806
:101D1C0003F00C03082B61D07B68DB69022B46D1E6
:101D2C00334B00221A60FFF75BFA386108E0FFF7CB
:101D3C0057FA02463B69D31A022B01D903236DE0F3
:101D4C00294B1B6803F00073002BF0D17B681B6AD6
:101D5C00B3F5803F08D1244B5B6823F400327B68D9
:101D6C009B68214913434B601F4B5B6823F474122F
:101D7C007B68196A7B685B6A0B431B4913434B6096
:101D8C001B4B01221A60FFF72BFA386108E0FFF7B2
:101D9C0027FA02463B69D31A022B01D903233DE0F3
:101DAC00114B1B6803F00073002BF0D035E0104B87
:101DBC0000221A60FFF714FA386108E0FFF710FAF6
:101DCC0002463B69D31A022B01D9032326E0064BAA
:101DDC001B6803F00073002BF0D11EE07B68DB69FD
:101DEC00012B07D1012319E00010024000700040C4
:101DFC00600042420B4B5B68FB60FB6803F4803273
:101E0C007B681B6A9A4206D1FB6803F470127B68EC
:101E1C005B6A9A4201D0012300E000231846183770
:101E2C00BD4680BD0010024080B584B000AF786024
:101E3C0039607B68002B01D10123D0E06A4B1B6811
:101E4C0003F007033A689A4210D9674B1B6823F0DA
:101E5C00070265493B6813430B60634B1B6803F037
:101E6C0007033A689A4201D00123B8E07B681B68EB
:101E7C0003F00203002B20D07B681B6803F00403E3
:101E8C00002B05D0594B5B68584A43F4E063536010
:101E9C007B681B6803F00803002B05D0534B5B6871
:101EAC00524A43F460535360504B5B6823F0F0028A
:101EBC007B689B684D4913434B607B681B6803F040
:101ECC000103002B40D07B685B68012B07D1474B8B
:101EDC001B6803F40033002B15D101237FE07B68D2
:101EEC005B68022B07D1414B1B6803F00073002B7E
:101EFC0009D1012373E03D4B1B6803F00203002B57
:101F0C0001D101236BE0394B5B6823F003027B6842
:101F1C005B68364913434B60FFF762F9F8600AE0DF
:101F2C00FFF75EF90246FB68D31A41F288329342FE
:101F3C0001D9032353E02D4B5B6803F00C027B6843
:101F4C005B689B009A42EBD1274B1B6803F007039D
:101F5C003A689A4210D2244B1B6823F0070222499C
:101F6C003B6813430B60204B1B6803F007033A6874
:101F7C009A4201D0012332E07B681B6803F0040312
:101F8C00002B08D0194B5B6823F4E0627B68DB689C
:101F9C00164913434B607B681B6803F00803002B46
:101FAC0009D0124B5B6823F460527B681B69DB0021
:101FBC000E4913434B6000F021F802460B4B5B6853
:101FCC001B0903F00F030A49CB5C22FA03F3094AFD
:101FDC001360094B1B681846FFF7C0F8002318461E
:101FEC001037BD4680BD00BF0020024000100240EB
:101FFC00803D00082C0000203400002090B48AB0F2
:10200C0000AF294B3C1D0FCB84E80F0040F201239D
:10201C003B800023FB610023BB6100237B62002318
:10202C007B6100233B62214B5B68FB61FB6903F026
:10203C000C03042B02D0082B03D02BE01C4B3B626F
:10204C002BE0FB699B0C03F00F0328333B4413F884
:10205C00243C7B61FB6903F48033002B12D0134BBF
:10206C005B685B0C03F0010328333B4413F8283CFA
:10207C00BB617B690E4A03FB02F2BB69B2FBF3F353
:10208C007B6204E07B690B4A02FB03F37B627B6A95
:10209C003B6202E0064B3B6200BF3B6A18462837A6
:1020AC00BD4690BC704700BF703D00080010024058
:1020BC0000127A0000093D0080B400AF024B1B688F
:1020CC001846BD4680BC70472C00002080B500AF80
:1020DC00FFF7F2FF0246054B5B681B0A03F0070390
:1020EC000349CB5C22FA03F3184680BD0010024072
:1020FC00903D000880B500AFFFF7DEFF0246054BB0
:10210C005B68DB0A03F007030349CB5C22FA03F399
:10211C00184680BD00100240903D000880B485B088
:10212C0000AF78600A4B1B680A4AA2FB03235B0AC8
:10213C007A6802FB03F3FB6000BFFB685A1EFA606F
:10214C00002BF9D100BF00BF1437BD4680BC7047CF
:10215C002C000020D34D621080B582B000AF7860A7
:10216C007B68002B01D1012341E07B6893F83D3063
:10217C00DBB2002B06D17B68002283F83C20786808
:10218C00FEF7B4FD7B68022283F83D207B681A6859
:10219C007B6804331946104600F070FA7B68012204
:1021AC0083F846207B68012283F83E207B6801225D
:1021BC0083F83F207B68012283F840207B68012252
:1021CC0083F841207B68012283F842207B6801223E
:1021DC0083F843207B68012283F844207B6801222A
:1021EC0083F845207B68012283F83D2000231846A4
:1021FC000837BD4680BD000080B485B000AF786064
:10220C007B6893F83D30DBB2012B01D001233AE01F
:10221C007B68022283F83D207B681B68DA687B6848
:10222C001B6842F00102DA607B681B68184A934213
:10223C000ED07B681B68B3F1804F09D07B681B689C
:10224C00144A934204D07B681B68134A934211D101
:10225C007B681B689B6803F00703FB60FB68062B1D
:10226C0010D07B681B681A687B681B6842F00102FF
:10227C001A6007E07B681B681A687B681B6842F071
:10228C0001021A60002318461437BD4680BC704703
:10229C00002C0140000400400008004080B582B0D2
:1022AC0000AF78607B681B681B6903F00203022B8C
:1022BC0022D17B681B68DB6803F00203022B1BD165
:1022CC007B681B686FF002021A617B6801221A7727
:1022DC007B681B689B6903F00303002B03D07868B1
:1022EC0000F0B1F905E0786800F0A4F9786800F026
:1022FC00B3F97B6800221A777B681B681B6903F0B3
:10230C000403042B22D17B681B68DB6803F00403F5
:10231C00042B1BD17B681B686FF004021A617B686D
:10232C0002221A777B681B689B6903F44073002BAD
:10233C0003D0786800F087F905E0786800F07AF946
:10234C00786800F089F97B6800221A777B681B6833
:10235C001B6903F00803082B22D17B681B68DB6820
:10236C0003F00803082B1BD17B681B686FF0080275
:10237C001A617B6804221A777B681B68DB6903F09F
:10238C000303002B03D0786800F05DF905E0786852
:10239C0000F050F9786800F05FF97B6800221A773A
:1023AC007B681B681B6903F01003102B22D17B6820
:1023BC001B68DB6803F01003102B1BD17B681B68B8
:1023CC006FF010021A617B6808221A777B681B6811
:1023DC00DB6903F44073002B03D0786800F033F909
:1023EC0005E0786800F026F9786800F035F97B682C
:1023FC0000221A777B681B681B6903F00103012B11
:10240C000ED17B681B68DB6803F00103012B07D13D
:10241C007B681B686FF001021A617868FEF778FA26
:10242C007B681B681B6903F08003802B0ED17B68D3
:10243C001B68DB6803F08003802B07D17B681B686B
:10244C006FF080021A61786800F077FA7B681B687D
:10245C001B6903F04003402B0ED17B681B68DB68C3
:10246C0003F04003402B07D17B681B686FF04002E0
:10247C001A61786800F0F9F87B681B681B6903F037
:10248C002003202B0ED17B681B68DB6803F0200334
:10249C00202B07D17B681B686FF020021A617868CB
:1024AC0000F042FA00BF0837BD4680BD80B584B04D
:1024BC0000AF786039607B6893F83C30012B01D118
:1024CC000223B3E07B68012283F83C207B68022264
:1024DC0083F83D207B681B689B68FB60FB6823F0DE
:1024EC007703FB60FB6823F47F43FB607B681B680E
:1024FC00FA689A603B681B68B3F5005F3ED0B3F591
:10250C00005F00F28780B3F5805F00F08580B3F543
:10251C00805F7FD8702B1AD0702B7BD8602B50D05B
:10252C00602B77D8502B3CD0502B73D8402B58D0E5
:10253C00402B6FD8302B64D0302B6BD8202B60D035
:10254C00202B67D8002B5CD0102B5AD062E07B6814
:10255C0018683B6899683B685A683B68DB6800F010
:10256C0066F97B681B689B68FB60FB6843F077032C
:10257C00FB607B681B68FA689A604EE07B681868A1
:10258C003B6899683B685A683B68DB6800F04FF918
:10259C007B681B689A687B681B6842F480429A606F
:1025AC003BE07B6818683B6859683B68DB681A46F7
:1025BC0000F0C6F87B681B685021184600F01DF926
:1025CC002BE07B6818683B6859683B68DB681A46E7
:1025DC0000F0E4F87B681B686021184600F00DF9E8
:1025EC001BE07B6818683B6859683B68DB681A46D7
:1025FC0000F0A6F87B681B684021184600F0FDF837
:10260C000BE07B681A683B681B681946104600F0A3
:10261C00F4F802E000BF00E000BF7B68012283F801
:10262C003D207B68002283F83C200023184610379D
:10263C00BD4680BD80B483B000AF786000BF0C375E
:10264C00BD4680BC704780B483B000AF786000BFDB
:10265C000C37BD4680BC704780B483B000AF786047
:10266C0000BF0C37BD4680BC704780B483B000AF50
:10267C00786000BF0C37BD4680BC704780B485B015
:10268C0000AF786039607B681B68FB607B68294A07
:10269C0093420BD07B68B3F1804F07D07B68264AFE
:1026AC00934203D07B68254A934208D1FB6823F000
:1026BC007003FB603B685B68FA681343FB607B68E4
:1026CC001C4A93420BD07B68B3F1804F07D07B68D8
:1026DC00194A934203D07B68184A934208D1FB688D
:1026EC0023F44073FB603B68DB68FA681343FB60C0
:1026FC00FB6823F080023B685B691343FB607B68DB
:10270C00FA681A603B689A687B68DA623B681A68F8
:10271C007B689A627B68074A934203D13B681A69CB
:10272C007B681A637B6801225A6100BF1437BD466F
:10273C0080BC7047002C01400004004000080040A1
:10274C0080B487B000AFF860B9607A60FB681B6A30
:10275C007B61FB681B6A23F00102FB681A62FB6851
:10276C009B693B613B6923F0F0033B617B681B0178
:10277C003A6913433B617B6923F00A037B617A69F5
:10278C00BB6813437B61FB683A699A61FB687A69A1
:10279C001A6200BF1C37BD4680BC704780B487B03E
:1027AC0000AFF860B9607A60FB681B6A23F0100216
:1027BC00FB681A62FB689B697B61FB681B6A3B6167
:1027CC007B6923F470437B617B681B037A69134339
:1027DC007B613B6923F0A0033B61BB681B013A6939
:1027EC0013433B61FB687A699A61FB683A691A6228
:1027FC0000BF1C37BD4680BC704780B485B000AFAD
:10280C00786039607B689B68FB60FB6823F0700321
:10281C00FB603A68FB68134343F00703FB607B687B
:10282C00FA689A6000BF1437BD4680BC704780B40C
:10283C0087B000AFF860B9607A603B60FB689B685A
:10284C007B617B6923F47F437B613B681A027B6865
:10285C001A43BB6813437A6913437B61FB687A693B
:10286C009A6000BF1C37BD4680BC704780B485B0F1
:10287C0000AF786039607B6893F83C30012B01D154
:10288C00022346E07B68012283F83C207B6802220D
:10289C0083F83D207B681B685B68FB607B681B686A
:1028AC009B68BB60FB6823F07003FB603B681B6894
:1028BC00FA681343FB607B681B68FA685A607B6894
:1028CC001B68164A93420ED07B681B68B3F1804F8D
:1028DC0009D07B681B68124A934204D07B681B6842
:1028EC00104A93420CD1BB6823F08003BB603B6859
:1028FC005B68BA681343BB607B681B68BA689A60F4
:10290C007B68012283F83D207B68002283F83C2001
:10291C00002318461437BD4680BC7047002C01407C
:10292C00000400400008004080B483B000AF786021
:10293C0000BF0C37BD4680BC704780B483B000AF7D
:10294C00786000BF0C37BD4680BC704780B582B044
:10295C0000AF78607B68002B01D101233FE07B68DE
:10296C0093F83D30DBB2002B06D17B68002283F854
:10297C003C207868FEF7DEF97B68242283F83D2042
:10298C007B681B68DA687B681B6822F40052DA608B
:10299C00786800F085FC7B681B681A697B681B688B
:1029AC0022F490421A617B681B685A697B681B6829
:1029BC0022F02A025A617B681B68DA687B681B6804
:1029CC0042F40052DA607B6800221A647B68202291
:1029DC0083F83D207B68202283F83E200023184694
:1029EC000837BD4680BD80B58AB002AFF860B960CB
:1029FC003B601346FB8000237B61FB6893F83D3002
:102A0C00DBB2202B7CD1BB68002B02D0FB88002BC7
:102A1C0001D1012375E0FB6893F83C30012B01D107
:102A2C0002236EE0FB68012283F83C20FB68002245
:102A3C001A64FB68212283F83D20FEF7D1FB7861F4
:102A4C00FB68FA889A84FB68FA88DA84FB689B68CE
:102A5C00B3F5805F08D1FB681B69002B04D1002300
:102A6C00FB61BB68BB6103E0BB68FB610023BB611E
:102A7C00FB68002283F83C202AE03B6800937B69CA
:102A8C0000228021F86800F038FA0346002B01D0B0
:102A9C00032336E0FB69002B0BD1BB691B881A465C
:102AAC00FB681B68C2F308025A60BB690233BB6146
:102ABC0007E0FB691A78FB681B685A60FB690133F5
:102ACC00FB61FB68DB8C9BB2013B9AB2FB68DA843E
:102ADC00FB68DB8C9BB2002BCFD13B6800937B69EE
:102AEC0000224021F86800F008FA0346002B01D0C0
:102AFC00032306E0FB68202283F83D20002300E03E
:102B0C00022318462037BD4680BD80B584B000AF87
:102B1C00F860B9601346FB80FB6893F83E30DBB27B
:102B2C00202B1DD1BB68002B02D0FB88002B01D1C0
:102B3C00012316E0FB6893F83C30012B01D10223F2
:102B4C000FE0FB68012283F83C20FB6800221A632B
:102B5C00FB881A46B968F86800F019FA034600E0D9
:102B6C00022318461037BD4680BD000080B58AB0E0
:102B7C0000AF78607B681B681B687B627B681B6896
:102B8C00DB683B627B681B685B69FB610023BB6194
:102B9C0000237B617B6A03F00F03BB61BB69002BD5
:102BAC000DD17B6A03F02003002B08D03B6A03F0A5
:102BBC002003002B03D0786800F0C9FA7BE1BB69D5
:102BCC00002B00F0B180FB6903F00103002B05D151
:102BDC003B6A03F49073002B00F0A6807B6A03F031
:102BEC000103002B0AD03B6A03F48073002B05D041
:102BFC007B681B6C43F001027B681A647B6A03F0F0
:102C0C000403002B0AD0FB6903F00103002B05D051
:102C1C007B681B6C43F002027B681A647B6A03F0CE
:102C2C000203002B0AD0FB6903F00103002B05D033
:102C3C007B681B6C43F004027B681A647B6A03F0AC
:102C4C000803002B0FD03B6A03F02003002B04D1A8
:102C5C00FB6903F00103002B05D07B681B6C43F070
:102C6C0008027B681A647B681B6C002B00F01E81C9
:102C7C007B6A03F02003002B07D03B6A03F0200390
:102C8C00002B02D0786800F062FA7B681B685B69E5
:102C9C0003F04003002B14BF01230023DBB27B6144
:102CAC007B681B6C03F00803002B02D17B69002BA3
:102CBC0031D0786800F0A4F97B681B685B6903F07D
:102CCC004003002B23D07B681B685A697B681B6808
:102CDC0022F040025A617B689B6B002B13D07B68FF
:102CEC009B6B764A5A637B689B6B1846FEF7EEFB30
:102CFC000346002B16D07B689B6B5B6B7A68926BE0
:102D0C00104698470EE0786800F0E3F80AE078681F
:102D1C0000F0DFF806E0786800F0DBF87B68002252
:102D2C001A64C3E000BFC1E07B681B6B012B40F051
:102D3C00A1807B6A03F01003002B00F09B803B6AA0
:102D4C0003F01003002B00F095800023FB607B68E0
:102D5C001B681B68FB607B681B685B68FB60FB681F
:102D6C007B681B685B6903F04003002B4ED07B68CB
:102D7C009B6B1B685B683B823B8A002B00F0988046
:102D8C007B689B8D3A8A9A4280F092807B683A8A63
:102D9C00DA857B689B6B9B69202B2BD07B681B682F
:102DAC00DA687B681B6822F48072DA607B681B68C7
:102DBC005A697B681B6822F001025A617B681B68A8
:102DCC005A697B681B6822F040025A617B6820229A
:102DDC0083F83E207B6800221A637B681B68DA68E4
:102DEC007B681B6822F01002DA607B689B6B1846CC
:102DFC00FEF731FB7B689A8D7B68DB8D9BB2D31A17
:102E0C009BB21946786800F06DF851E07B689A8D9A
:102E1C007B68DB8D9BB2D31A7B827B68DB8D9BB28C
:102E2C00002B47D07B8A002B44D07B681B68DA6868
:102E3C007B681B6822F49072DA607B681B685A69A5
:102E4C007B681B6822F001025A617B68202283F8A0
:102E5C003E207B6800221A637B681B68DA687B68FB
:102E6C001B6822F01002DA607B8A1946786800F041
:102E7C0039F81FE07B6A03F08003002B08D03B6A13
:102E8C0003F08003002B03D0786800F0F9F812E00F
:102E9C007B6A03F04003002B0DD03B6A03F0400328
:102EAC00002B08D0786800F03AF904E000BF02E08B
:102EBC0000BF00E000BF2837BD4680BD653000086C
:102ECC0080B483B000AF786000BF0C37BD4680BCC7
:102EDC00704780B483B000AF786000BF0C37BD463C
:102EEC0080BC704780B483B000AF78600B467B80A9
:102EFC0000BF0C37BD4680BC704780B584B000AFB6
:102F0C00F860B9603B601346FB712CE0BB69B3F110
:102F1C00FF3F28D0BB69002B07D0FEF761F90246B2
:102F2C003B68D31ABA699A421DD2FB681B68DA68EF
:102F3C00FB681B6822F4D072DA60FB681B685A6964
:102F4C00FB681B6822F001025A61FB68202283F89F
:102F5C003D20FB68202283F83E20FB68002283F88A
:102F6C003C2003230FE0FB681B681A68BB68134006
:102F7C00BA689A420CBF01230023DBB21A46FB79D4
:102F8C009A42C3D0002318461037BD4680BD80B48A
:102F9C0085B000AFF860B9601346FB80FB68BA6877
:102FAC009A62FB68FA889A85FB68FA88DA85FB686E
:102FBC0000221A64FB68222283F83E20FB68002260
:102FCC0083F83C20FB681B68DA68FB681B6842F4DA
:102FDC008072DA60FB681B685A69FB681B6842F0F8
:102FEC0001025A61FB681B68DA68FB681B6842F0D7
:102FFC002002DA60002318461437BD4680BC7047A7
:10300C0080B483B000AF78607B681B68DA687B683B
:10301C001B6822F49072DA607B681B685A697B68C3
:10302C001B6822F001025A617B681B6B012B07D1D4
:10303C007B681B68DA687B681B6822F01002DA6018
:10304C007B68202283F83E207B6800221A6300BF35
:10305C000C37BD4680BC704780B584B000AF78603B
:10306C007B685B6AFB60FB680022DA85FB680022E8
:10307C00DA84F868FFF72DFF00BF1037BD4680BD1E
:10308C0080B485B000AF78607B6893F83D30DBB2DC
:10309C00212B3ED17B689B68B3F5805F14D17B6894
:1030AC001B69002B10D17B681B6AFB60FB681B88BB
:1030BC001A467B681B68C2F308025A607B681B6A5D
:1030CC009A1C7B681A6208E07B681B6A591C7A6838
:1030DC0011621A787B681B685A607B68DB8C9BB228
:1030EC00013B9BB27A681946D184002B0FD17B68C7
:1030FC001B68DA687B681B6822F08002DA607B68E8
:10310C001B68DA687B681B6842F04002DA600023B7
:10311C0000E0022318461437BD4680BC704780B5CA
:10312C0082B000AF78607B681B68DA687B681B68CC
:10313C0022F04002DA607B68202283F83D20786818
:10314C00FFF7BEFE002318460837BD4680BD80B58C
:10315C0086B000AF78607B6893F83E30DBB2222BF0
:10316C0040F099807B689B68B3F5805F17D17B68D2
:10317C001B69002B13D100237B617B689B6A3B612D
:10318C007B681B685B689BB2C3F308039AB23B690C
:10319C001A807B689B6A9A1C7B689A6226E07B6823
:1031AC009B6A7B6100233B617B689B68B3F5805F06
:1031BC0007D07B689B68002B0AD17B681B69002BAE
:1031CC0006D17B681B685B68DAB27B691A7008E011
:1031DC007B681B685B68DBB203F07F03DAB27B6948
:1031EC001A707B689B6A5A1C7B689A627B68DB8DC1
:1031FC009BB2013B9BB27A681946D185002B48D112
:10320C007B681B68DA687B681B6822F02002DA6036
:10321C007B681B68DA687B681B6822F48072DA6052
:10322C007B681B685A697B681B6822F001025A6133
:10323C007B68202283F83E207B681B6B012B23D1FB
:10324C007B6800221A637B681B68DA687B681B68E2
:10325C0022F01002DA607B681B681B6803F0100315
:10326C00102B0AD10023FB607B681B681B68FB607A
:10327C007B681B685B68FB60FB687B689B8D1946F1
:10328C007868FFF72FFE02E07868FDF753FB002308
:10329C0002E0002300E0022318461837BD4680BD2B
:1032AC0080B584B000AF78607B681B681B6923F421
:1032BC0040517B68DA687B681B680A431A617B683B
:1032CC009A687B681B691A437B685B691343BB6014
:1032DC007B681B68DB6823F4B05323F00C037A681B
:1032EC001268B9680B43D3607B681B685B6923F475
:1032FC0040717B689A697B681B680A435A617B68DA
:10330C001B682C4A934203D1FEF7F4FEF86002E0EE
:10331C00FEF7DCFEF860FA6813469B0013449A0033
:10332C001A447B685B689B00B2FBF3F3224AA2FB56
:10333C0003235B091901FA6813469B0013449A0096
:10334C001A447B685B689B00B2FBF3F21A4BA3FB3D
:10335C0002035B09642000FB03F3D31A1B01323315
:10336C00154AA2FB03235B0903F0F0031944FA6826
:10337C0013469B0013449A001A447B685B689B00BD
:10338C00B2FBF3F20C4BA3FB02035B09642000FBC2
:10339C0003F3D31A1B013233074AA2FB03235B0945
:1033AC0003F00F027B681B680A449A6000BF103759
:1033BC00BD4680BD003801401F85EB51014B18689C
:1033CC00704700BF3C00002070B500260C4D0D4C22
:1033DC00641BA410A64209D100F0ACFC00260A4DD7
:1033EC000A4C641BA410A64205D170BD55F8043BD1
:1033FC0098470136EEE755F8043B98470136F2E75B
:10340C00CC3D0008CC3D0008CC3D0008D03D000868
:10341C00024B0146186800F07BB800BF3C0000204E
:10342C00024B0146186800F00BB800BF3C000020AE
:10343C0003460244934200D1704703F8011BF9E79D
:10344C0038B50546002940D051F8043C0C1F002B20
:10345C00B8BFE41800F000F91C4A136833B9636074
:10346C0014602846BDE8384000F0FCB8A34208D9E7
:10347C00206821188B4201BF19685B68091821600C
:10348C00EDE71A465B680BB1A342FAD911685018E4
:10349C00A0420BD120680144501883421160E0D146
:1034AC0018685B68014411605360DAE702D90C2399
:1034BC002B60D6E7206821188B4201BF19685B6826
:1034CC000918216063605460CBE738BD840200208A
:1034DC0070B50E4E0C463168054611B900F08CF8EB
:1034EC0030602146284600F087F8431C0AD0C41CE3
:1034FC0024F00304A04207D0211A284600F07CF8DF
:10350C00013001D14FF0FF34204670BD88020020FD
:10351C002DE9F041CD1C25F0030508350C2D38BFE5
:10352C000C25002D074601DBA94205D90C230026EA
:10353C003B603046BDE8F0812E4E00F08DF83368CC
:10354C001C4634BB29463846FFF7C2FF431C0446D1
:10355C004DD134682646002E40D12368314638467A
:10356C0004EB030800F048F880453AD12168033594
:10357C006D1A25F0030508350C2D38BF0C2538467F
:10358C002946FFF7A5FF01302BD023682B4423607D
:10359C000EE02268521B1ED40B2A16D96119A342C5
:1035AC00256018BF5960636808BF316062514B6079
:1035BC00384604F10B0600F055F826F00706231DDB
:1035CC00F21AB6D09B1BA350B3E76268A3420CBFA0
:1035DC0032605A60ECE723466468B2E7344676689A
:1035EC00B9E70C2338463B6000F03CF8A1E72560B6
:1035FC00DEE700BF8402002038B50023054D0446E9
:10360C0008462B60FDF7BEFC431C02D12B6803B1AE
:10361C00236038BD8C0200200EB46FF0004100B561
:10362C009CB01DAB02900690079104910848094983
:10363C0053F8042B0591006802A9019300F074F86B
:10364C000022029B1A701CB05DF804EB03B07047AB
:10365C003C0000200802FFFF014800F0FBBA00BF4D
:10366C0090020020014800F0F6BA00BF9002002042
:10367C002DE9F0478E6882469E420C4690461F46C6
:10368C0038D88A8912F4906F32D0256809690133D1
:10369C00A5EB010965694B4405EB450505EBD575B3
:1036AC006D109D4238BF1D46530531D52946FFF795
:1036BC002FFF064650B90C234FF0FF30CAF80030EC
:1036CC00A38943F04003A381BDE8F0874A462169F2
:1036DC0000F0D0FAA38923F4906343F08003A38114
:1036EC0026614E4426603E466561A5EB0905A56042
:1036FC00BE4200D93E4632464146206800F0C8FA28
:10370C00A36800209B1BA360236833442360DBE782
:10371C002A4600F0D7FA06460028E1D15046216926
:10372C00FFF78EFEC7E700002DE9F04F98468B8916
:10373C0007461B060D4614469DB00ED50B6963B9A2
:10374C004021FFF7E5FE2860286120B90C233B607F
:10375C004FF0FF30D1E040236B610023099320230D
:10376C008DF8293030234FF00109CDF80C80DFF8AB
:10377C00A4818DF82A3023469A4613F8012B0AB1FE
:10378C00252AF9D1BAEB040B0BD05B46224629460D
:10379C003846FFF76DFF013000F0AA80099A5A44B1
:1037AC0009929AF80030002B00F0A28000234FF011
:1037BC00FF32CDE905230AF1010A049307938DF832
:1037CC0053301A935446052214F8011B514800F04B
:1037DC0043FA049AD8B9D00644BF20238DF853304D
:1037EC00110744BF2B238DF853309AF800302A2B45
:1037FC0015D0544600204FF00A0C079A214611F8B8
:10380C00013B303B092B4ED9B0B1079214E0A0EB31
:10381C00080309FA03F31343A2460493D2E7039B6C
:10382C00191D1B680391002BBBBF5B4242F00202C7
:10383C0007930793B8BF049223782E2B0CD163788F
:10384C002A2B35D1039B02341A1D1B680392002BC3
:10385C00B8BF4FF0FF330593DFF8BCA003225046EE
:10386C00217800F0F9F940B14023A0EB0A0003FAEB
:10387C0000F0049B01340343049314F8011B06224B
:10388C0026488DF8281000F0E7F9002838D0244B92
:10389C001BBB039B073323F0070308330393099BDC
:1038AC003344099367E70C4601200CFB0232A5E771
:1038BC0000234FF00A0C194601340593204610F8EA
:1038CC00012B303A092A03D9002BC5D00591C3E747
:1038DC00044601230CFB0121F0E703AB00932A46BD
:1038EC003846104B04A9AFF30080421C0646D6D1D3
:1038FC00AB895B063FF52CAF09981DB0BDE8F08F86
:10390C0003AB00932A463846064B04A900F07CF81A
:10391C00EBE700BF983D00089E3D0008A23D000863
:10392C00000000007D3600082DE9F0471646994648
:10393C008A680B6907469342B8BF1346336091F807
:10394C0043200C46DDF820800AB101333360236834
:10395C00990642BF336802333360256815F00605BB
:10396C0006D104F1190AE36832689B1AAB4228DCD1
:10397C0094F84320131E226818BF012392062DD4FD
:10398C004946384604F14302C047013020D0236831
:10399C00E56803F00603042B18BF002532684FF0CE
:1039AC000006A36808BFAD1A226908BF25EAE575B1
:1039BC009342C4BF9B1AED181A34B5421AD1002099
:1039CC0008E00123524649463846C047013003D12E
:1039DC004FF0FF30BDE8F0870135C4E73020E11827
:1039EC0081F843005A1C94F845102244023382F8A3
:1039FC004310C5E70123224649463846C0470130EB
:103A0C00E6D00136D9E700002DE9FF470F7E91463D
:103A1C00782F80460C469A460C9D01F1430207D83C
:103A2C00622F0AD8002F00F0D980582F00F0A48004
:103A3C0004F1420584F842703AE0A7F16303152BB8
:103A4C00F6D801A151F823F0AD3A0008C13A0008AC
:103A5C003D3A00083D3A00083D3A00083D3A00085E
:103A6C00C13A00083D3A00083D3A00083D3A0008CA
:103A7C003D3A0008CF3B0008F13A0008B13B000882
:103A8C003D3A00083D3A0008F13B00083D3A000879
:103A9C00F13A00083D3A00083D3A0008B93B0008ED
:103AAC002B681A1D1B682A6004F1420584F8423009
:103ABC000123A4E020682968060601F104030AD555
:103ACC000E682B60002E03DA2D23764284F84330E7
:103ADC000A235E4819E00E6810F0400F2B6018BFE7
:103AEC0036B2EFE72B682068191D2960010601D555
:103AFC001E6802E04606FBD51E886F2F0CBF0823FC
:103B0C000A235248002184F843106568002DA8BF91
:103B1C002168A560A4BF21F0040121600EB9002D1D
:103B2C004DD01546B6FBF3F103FB1167C75D05F8E5
:103B3C00017D3746BB420E46F4D9082B0BD12368C6
:103B4C00DE0708D5236961689942DEBF302305F88A
:103B5C00013C05F1FF35521B22614B462146404684
:103B6C00CDF800A003AAFFF7DFFE01304CD14FF0D7
:103B7C00FF3004B0BDE8F087344881F845702968FF
:103B8C00236851F8046B29601D0614D5DF0744BF68
:103B9C0043F0200323601EB9236823F02003236025
:103BAC001023AFE7236843F02003236078232848D1
:103BBC0084F84530E3E7590648BFB6B2E6E7154648
:103BCC00BBE72B682668181D6169286035061B68E1
:103BDC0001D5196002E07006FBD51980002315464B
:103BEC002361BAE72B6800211A1D2A601D686268E0
:103BFC00284600F031F808B1401B6060636823610F
:103C0C00002384F84330A8E72A46494640462369F6
:103C1C00D0470130ABD023689B0713D4E068039BDB
:103C2C009842B8BF1846A4E701233246494640469D
:103C3C00D04701309BD00135E36803995B1AAB4246
:103C4C00F2DCEBE7002504F11906F5E7A93D0008C5
:103C5C00BA3D000870477047034610B5C9B202441C
:103C6C009342184601D1002003E0047801338C42C2
:103C7C00F6D110BD0A44914200F1FF3300D17047D8
:103C8C0010B511F8014B914203F8014FF9D110BD59
:103C9C00884210B501EB020402D98442234607D8AE
:103CAC00431EA14208D011F8012B03F8012FF8E7AD
:103CBC00014602448A4200D110BD13F8014D02F8AE
:103CCC00014DF7E72DE9F041804614460E4621B927
:103CDC001146BDE8F041FFF71BBC2AB9FFF7B0FB5A
:103CEC0025462846BDE8F08100F01BF884420746C3
:103CFC0002D8B4EB500F12D821464046FFF708FC0F
:103D0C0005460028EDD0BC422246314628BF3A4633
:103D1C00FFF7B0FF31464046FFF792FBE1E735462F
:103D2C00DFE751F8043C181F002BBCBF0B58C01820
:103D3C0070470000F8B500BFF8BC08BC9E46704741
:0C3D4C00F8B500BFF8BC08BC9E467047EC
:103D58002144485423000000214552524F52230069
:103D6800214C3D256C75230002030405060708094C
:103D78000A0B0C0D0E0F10100000000000000000D0
:103D880001020304060708090000000001020304F9
:103D9800232D302B2000686C4C006566674546472C
:103DA80000303132333435363738394142434445AF
:103DB800460030313233343536373839616263641E
:043DC800656600002C
:043DCC0031010008B9
:043DD0000D010008D9
:103DD4002130302E303023000100000003000000A9
:103DE400214552524F525F525123000000100140AE
:103DF4000002000021312300213023000024F400BC
:103E04000A00000010000000010000004000002033
:103E1400000000000000000000000000000000009E
:103E2400000000000000000000000000000000008E
:103E3400000000000000000000000000000000007E
:103E4400000000000000000000000000000000006E
:103E5400000000000000000000000000000000005E
:103E6400000000000000000000000000000000004E
:04000005080010F1EE
:00000001FF
